{
  "_format": "hh-sol-artifact-1",
  "contractName": "NftERC721",
  "sourceName": "contracts/NftERC721.sol",
  "abi": [
    {
      "inputs": [
        {
          "internalType": "string",
          "name": "_collectionName",
          "type": "string"
        },
        {
          "internalType": "string",
          "name": "_token",
          "type": "string"
        }
      ],
      "stateMutability": "payable",
      "type": "constructor"
    },
    {
      "anonymous": false,
      "inputs": [
        {
          "indexed": true,
          "internalType": "address",
          "name": "owner",
          "type": "address"
        },
        {
          "indexed": true,
          "internalType": "address",
          "name": "approved",
          "type": "address"
        },
        {
          "indexed": true,
          "internalType": "uint256",
          "name": "tokenId",
          "type": "uint256"
        }
      ],
      "name": "Approval",
      "type": "event"
    },
    {
      "anonymous": false,
      "inputs": [
        {
          "indexed": true,
          "internalType": "address",
          "name": "owner",
          "type": "address"
        },
        {
          "indexed": true,
          "internalType": "address",
          "name": "operator",
          "type": "address"
        },
        {
          "indexed": false,
          "internalType": "bool",
          "name": "approved",
          "type": "bool"
        }
      ],
      "name": "ApprovalForAll",
      "type": "event"
    },
    {
      "anonymous": false,
      "inputs": [
        {
          "indexed": false,
          "internalType": "bool",
          "name": "isMinted",
          "type": "bool"
        }
      ],
      "name": "NftMinted",
      "type": "event"
    },
    {
      "anonymous": false,
      "inputs": [
        {
          "indexed": false,
          "internalType": "bool",
          "name": "isMinted",
          "type": "bool"
        }
      ],
      "name": "NftTransferred",
      "type": "event"
    },
    {
      "anonymous": false,
      "inputs": [
        {
          "indexed": true,
          "internalType": "bytes32",
          "name": "role",
          "type": "bytes32"
        },
        {
          "indexed": true,
          "internalType": "bytes32",
          "name": "previousAdminRole",
          "type": "bytes32"
        },
        {
          "indexed": true,
          "internalType": "bytes32",
          "name": "newAdminRole",
          "type": "bytes32"
        }
      ],
      "name": "RoleAdminChanged",
      "type": "event"
    },
    {
      "anonymous": false,
      "inputs": [
        {
          "indexed": true,
          "internalType": "bytes32",
          "name": "role",
          "type": "bytes32"
        },
        {
          "indexed": true,
          "internalType": "address",
          "name": "account",
          "type": "address"
        },
        {
          "indexed": true,
          "internalType": "address",
          "name": "sender",
          "type": "address"
        }
      ],
      "name": "RoleGranted",
      "type": "event"
    },
    {
      "anonymous": false,
      "inputs": [
        {
          "indexed": true,
          "internalType": "bytes32",
          "name": "role",
          "type": "bytes32"
        },
        {
          "indexed": true,
          "internalType": "address",
          "name": "account",
          "type": "address"
        },
        {
          "indexed": true,
          "internalType": "address",
          "name": "sender",
          "type": "address"
        }
      ],
      "name": "RoleRevoked",
      "type": "event"
    },
    {
      "anonymous": false,
      "inputs": [
        {
          "indexed": true,
          "internalType": "address",
          "name": "from",
          "type": "address"
        },
        {
          "indexed": true,
          "internalType": "address",
          "name": "to",
          "type": "address"
        },
        {
          "indexed": true,
          "internalType": "uint256",
          "name": "tokenId",
          "type": "uint256"
        }
      ],
      "name": "Transfer",
      "type": "event"
    },
    {
      "inputs": [],
      "name": "DEFAULT_ADMIN_ROLE",
      "outputs": [
        {
          "internalType": "bytes32",
          "name": "",
          "type": "bytes32"
        }
      ],
      "stateMutability": "view",
      "type": "function"
    },
    {
      "inputs": [],
      "name": "LEADER_ROLE",
      "outputs": [
        {
          "internalType": "bytes32",
          "name": "",
          "type": "bytes32"
        }
      ],
      "stateMutability": "view",
      "type": "function"
    },
    {
      "inputs": [],
      "name": "MEMBER_ROLE",
      "outputs": [
        {
          "internalType": "bytes32",
          "name": "",
          "type": "bytes32"
        }
      ],
      "stateMutability": "view",
      "type": "function"
    },
    {
      "inputs": [
        {
          "internalType": "uint256",
          "name": "tokenId",
          "type": "uint256"
        }
      ],
      "name": "activityOwnerOf",
      "outputs": [
        {
          "internalType": "address",
          "name": "",
          "type": "address"
        }
      ],
      "stateMutability": "view",
      "type": "function"
    },
    {
      "inputs": [
        {
          "internalType": "address",
          "name": "to",
          "type": "address"
        },
        {
          "internalType": "uint256",
          "name": "tokenId",
          "type": "uint256"
        }
      ],
      "name": "approve",
      "outputs": [],
      "stateMutability": "nonpayable",
      "type": "function"
    },
    {
      "inputs": [
        {
          "internalType": "address",
          "name": "from",
          "type": "address"
        },
        {
          "components": [
            {
              "internalType": "uint256",
              "name": "tokenId",
              "type": "uint256"
            },
            {
              "internalType": "uint256",
              "name": "amount",
              "type": "uint256"
            },
            {
              "internalType": "address",
              "name": "to",
              "type": "address"
            }
          ],
          "internalType": "struct NftERC721.ApprovementInfo",
          "name": "_txn",
          "type": "tuple"
        },
        {
          "internalType": "uint256",
          "name": "_nonce",
          "type": "uint256"
        },
        {
          "internalType": "bytes[]",
          "name": "_multiSignature",
          "type": "bytes[]"
        }
      ],
      "name": "approveActivity",
      "outputs": [],
      "stateMutability": "nonpayable",
      "type": "function"
    },
    {
      "inputs": [
        {
          "internalType": "address",
          "name": "owner",
          "type": "address"
        }
      ],
      "name": "balanceOf",
      "outputs": [
        {
          "internalType": "uint256",
          "name": "",
          "type": "uint256"
        }
      ],
      "stateMutability": "view",
      "type": "function"
    },
    {
      "inputs": [
        {
          "internalType": "address",
          "name": "account",
          "type": "address"
        }
      ],
      "name": "checkAddressLeader",
      "outputs": [
        {
          "internalType": "bool",
          "name": "",
          "type": "bool"
        }
      ],
      "stateMutability": "view",
      "type": "function"
    },
    {
      "inputs": [
        {
          "internalType": "address",
          "name": "account",
          "type": "address"
        }
      ],
      "name": "checkAddressMember",
      "outputs": [
        {
          "internalType": "bool",
          "name": "",
          "type": "bool"
        }
      ],
      "stateMutability": "view",
      "type": "function"
    },
    {
      "inputs": [
        {
          "internalType": "uint256",
          "name": "tokenId",
          "type": "uint256"
        }
      ],
      "name": "getActivity",
      "outputs": [
        {
          "components": [
            {
              "internalType": "uint256",
              "name": "tokenId",
              "type": "uint256"
            },
            {
              "internalType": "string",
              "name": "status",
              "type": "string"
            },
            {
              "internalType": "string",
              "name": "tokenUri",
              "type": "string"
            },
            {
              "internalType": "uint256",
              "name": "reward",
              "type": "uint256"
            }
          ],
          "internalType": "struct NftERC721.Activity",
          "name": "",
          "type": "tuple"
        }
      ],
      "stateMutability": "view",
      "type": "function"
    },
    {
      "inputs": [
        {
          "internalType": "uint256",
          "name": "tokenId",
          "type": "uint256"
        }
      ],
      "name": "getApproved",
      "outputs": [
        {
          "internalType": "address",
          "name": "",
          "type": "address"
        }
      ],
      "stateMutability": "view",
      "type": "function"
    },
    {
      "inputs": [
        {
          "internalType": "bytes32",
          "name": "role",
          "type": "bytes32"
        }
      ],
      "name": "getRoleAdmin",
      "outputs": [
        {
          "internalType": "bytes32",
          "name": "",
          "type": "bytes32"
        }
      ],
      "stateMutability": "view",
      "type": "function"
    },
    {
      "inputs": [
        {
          "internalType": "bytes32",
          "name": "role",
          "type": "bytes32"
        },
        {
          "internalType": "address",
          "name": "account",
          "type": "address"
        }
      ],
      "name": "grantRole",
      "outputs": [],
      "stateMutability": "nonpayable",
      "type": "function"
    },
    {
      "inputs": [
        {
          "internalType": "bytes32",
          "name": "role",
          "type": "bytes32"
        },
        {
          "internalType": "address",
          "name": "account",
          "type": "address"
        }
      ],
      "name": "hasRole",
      "outputs": [
        {
          "internalType": "bool",
          "name": "",
          "type": "bool"
        }
      ],
      "stateMutability": "view",
      "type": "function"
    },
    {
      "inputs": [],
      "name": "idCounter",
      "outputs": [
        {
          "internalType": "uint256",
          "name": "",
          "type": "uint256"
        }
      ],
      "stateMutability": "view",
      "type": "function"
    },
    {
      "inputs": [
        {
          "internalType": "address",
          "name": "owner",
          "type": "address"
        },
        {
          "internalType": "address",
          "name": "operator",
          "type": "address"
        }
      ],
      "name": "isApprovedForAll",
      "outputs": [
        {
          "internalType": "bool",
          "name": "",
          "type": "bool"
        }
      ],
      "stateMutability": "view",
      "type": "function"
    },
    {
      "inputs": [
        {
          "internalType": "uint256",
          "name": "tokenId",
          "type": "uint256"
        }
      ],
      "name": "isAvailableActivity",
      "outputs": [
        {
          "internalType": "bool",
          "name": "",
          "type": "bool"
        }
      ],
      "stateMutability": "view",
      "type": "function"
    },
    {
      "inputs": [],
      "name": "lastMinted",
      "outputs": [
        {
          "internalType": "string",
          "name": "",
          "type": "string"
        }
      ],
      "stateMutability": "view",
      "type": "function"
    },
    {
      "inputs": [],
      "name": "name",
      "outputs": [
        {
          "internalType": "string",
          "name": "",
          "type": "string"
        }
      ],
      "stateMutability": "view",
      "type": "function"
    },
    {
      "inputs": [],
      "name": "nonce",
      "outputs": [
        {
          "internalType": "uint256",
          "name": "",
          "type": "uint256"
        }
      ],
      "stateMutability": "view",
      "type": "function"
    },
    {
      "inputs": [
        {
          "internalType": "address",
          "name": "",
          "type": "address"
        },
        {
          "internalType": "address",
          "name": "",
          "type": "address"
        },
        {
          "internalType": "uint256",
          "name": "",
          "type": "uint256"
        },
        {
          "internalType": "bytes",
          "name": "",
          "type": "bytes"
        }
      ],
      "name": "onERC721Received",
      "outputs": [
        {
          "internalType": "bytes4",
          "name": "",
          "type": "bytes4"
        }
      ],
      "stateMutability": "pure",
      "type": "function"
    },
    {
      "inputs": [],
      "name": "owner",
      "outputs": [
        {
          "internalType": "address",
          "name": "",
          "type": "address"
        }
      ],
      "stateMutability": "view",
      "type": "function"
    },
    {
      "inputs": [
        {
          "internalType": "uint256",
          "name": "tokenId",
          "type": "uint256"
        }
      ],
      "name": "ownerOf",
      "outputs": [
        {
          "internalType": "address",
          "name": "",
          "type": "address"
        }
      ],
      "stateMutability": "view",
      "type": "function"
    },
    {
      "inputs": [
        {
          "internalType": "bytes32",
          "name": "role",
          "type": "bytes32"
        },
        {
          "internalType": "address",
          "name": "account",
          "type": "address"
        }
      ],
      "name": "renounceRole",
      "outputs": [],
      "stateMutability": "nonpayable",
      "type": "function"
    },
    {
      "inputs": [
        {
          "internalType": "bytes32",
          "name": "role",
          "type": "bytes32"
        },
        {
          "internalType": "address",
          "name": "account",
          "type": "address"
        }
      ],
      "name": "revokeRole",
      "outputs": [],
      "stateMutability": "nonpayable",
      "type": "function"
    },
    {
      "inputs": [
        {
          "internalType": "address",
          "name": "to",
          "type": "address"
        },
        {
          "internalType": "string",
          "name": "ipfsUri",
          "type": "string"
        }
      ],
      "name": "safeMint",
      "outputs": [],
      "stateMutability": "payable",
      "type": "function"
    },
    {
      "inputs": [
        {
          "internalType": "address",
          "name": "from",
          "type": "address"
        },
        {
          "internalType": "address",
          "name": "to",
          "type": "address"
        },
        {
          "internalType": "uint256",
          "name": "tokenId",
          "type": "uint256"
        }
      ],
      "name": "safeTransferFrom",
      "outputs": [],
      "stateMutability": "nonpayable",
      "type": "function"
    },
    {
      "inputs": [
        {
          "internalType": "address",
          "name": "from",
          "type": "address"
        },
        {
          "internalType": "address",
          "name": "to",
          "type": "address"
        },
        {
          "internalType": "uint256",
          "name": "tokenId",
          "type": "uint256"
        },
        {
          "internalType": "bytes",
          "name": "data",
          "type": "bytes"
        }
      ],
      "name": "safeTransferFrom",
      "outputs": [],
      "stateMutability": "nonpayable",
      "type": "function"
    },
    {
      "inputs": [
        {
          "internalType": "uint256",
          "name": "tokenId",
          "type": "uint256"
        },
        {
          "internalType": "address",
          "name": "to",
          "type": "address"
        }
      ],
      "name": "setActivityOwner",
      "outputs": [],
      "stateMutability": "nonpayable",
      "type": "function"
    },
    {
      "inputs": [
        {
          "internalType": "address",
          "name": "operator",
          "type": "address"
        },
        {
          "internalType": "bool",
          "name": "approved",
          "type": "bool"
        }
      ],
      "name": "setApprovalForAll",
      "outputs": [],
      "stateMutability": "nonpayable",
      "type": "function"
    },
    {
      "inputs": [
        {
          "internalType": "bytes4",
          "name": "interfaceId",
          "type": "bytes4"
        }
      ],
      "name": "supportsInterface",
      "outputs": [
        {
          "internalType": "bool",
          "name": "",
          "type": "bool"
        }
      ],
      "stateMutability": "view",
      "type": "function"
    },
    {
      "inputs": [],
      "name": "symbol",
      "outputs": [
        {
          "internalType": "string",
          "name": "",
          "type": "string"
        }
      ],
      "stateMutability": "view",
      "type": "function"
    },
    {
      "inputs": [],
      "name": "tokenIdCounter",
      "outputs": [
        {
          "internalType": "uint256",
          "name": "_value",
          "type": "uint256"
        }
      ],
      "stateMutability": "view",
      "type": "function"
    },
    {
      "inputs": [
        {
          "internalType": "uint256",
          "name": "tokenId",
          "type": "uint256"
        }
      ],
      "name": "tokenURI",
      "outputs": [
        {
          "internalType": "string",
          "name": "",
          "type": "string"
        }
      ],
      "stateMutability": "view",
      "type": "function"
    },
    {
      "inputs": [
        {
          "internalType": "address",
          "name": "from",
          "type": "address"
        },
        {
          "internalType": "address",
          "name": "to",
          "type": "address"
        },
        {
          "internalType": "uint256",
          "name": "tokenId",
          "type": "uint256"
        }
      ],
      "name": "transferFrom",
      "outputs": [],
      "stateMutability": "nonpayable",
      "type": "function"
    },
    {
      "inputs": [
        {
          "internalType": "address",
          "name": "from",
          "type": "address"
        },
        {
          "internalType": "address",
          "name": "_to",
          "type": "address"
        },
        {
          "internalType": "uint256",
          "name": "_tokenId",
          "type": "uint256"
        }
      ],
      "name": "transferNFTWithETH",
      "outputs": [],
      "stateMutability": "payable",
      "type": "function"
    },
    {
      "stateMutability": "payable",
      "type": "receive"
    }
  ],
  "bytecode": "0x6080604052604051620059d1380380620059d1833981810160405281019062000029919062000499565b81818160009080519060200190620000439291906200024c565b5080600190805190602001906200005c9291906200024c565b5050506002600a8190555033600d60006101000a81548173ffffffffffffffffffffffffffffffffffffffff021916908373ffffffffffffffffffffffffffffffffffffffff160217905550620000df6000801b600d60009054906101000a900473ffffffffffffffffffffffffffffffffffffffff16620000e760201b60201c565b505062000583565b620000f98282620001d960201b60201c565b620001d55760016007600084815260200190815260200160002060000160008373ffffffffffffffffffffffffffffffffffffffff1673ffffffffffffffffffffffffffffffffffffffff16815260200190815260200160002060006101000a81548160ff0219169083151502179055506200017a6200024460201b60201c565b73ffffffffffffffffffffffffffffffffffffffff168173ffffffffffffffffffffffffffffffffffffffff16837f2f8788117e7eff1d82e926ec794901d17c78024a50270940304540a733656f0d60405160405180910390a45b5050565b60006007600084815260200190815260200160002060000160008373ffffffffffffffffffffffffffffffffffffffff1673ffffffffffffffffffffffffffffffffffffffff16815260200190815260200160002060009054906101000a900460ff16905092915050565b600033905090565b8280546200025a906200054d565b90600052602060002090601f0160209004810192826200027e5760008555620002ca565b82601f106200029957805160ff1916838001178555620002ca565b82800160010185558215620002ca579182015b82811115620002c9578251825591602001919060010190620002ac565b5b509050620002d99190620002dd565b5090565b5b80821115620002f8576000816000905550600101620002de565b5090565b6000604051905090565b600080fd5b600080fd5b600080fd5b600080fd5b6000601f19601f8301169050919050565b7f4e487b7100000000000000000000000000000000000000000000000000000000600052604160045260246000fd5b62000365826200031a565b810181811067ffffffffffffffff821117156200038757620003866200032b565b5b80604052505050565b60006200039c620002fc565b9050620003aa82826200035a565b919050565b600067ffffffffffffffff821115620003cd57620003cc6200032b565b5b620003d8826200031a565b9050602081019050919050565b60005b8381101562000405578082015181840152602081019050620003e8565b8381111562000415576000848401525b50505050565b6000620004326200042c84620003af565b62000390565b90508281526020810184848401111562000451576200045062000315565b5b6200045e848285620003e5565b509392505050565b600082601f8301126200047e576200047d62000310565b5b8151620004908482602086016200041b565b91505092915050565b60008060408385031215620004b357620004b262000306565b5b600083015167ffffffffffffffff811115620004d457620004d36200030b565b5b620004e28582860162000466565b925050602083015167ffffffffffffffff8111156200050657620005056200030b565b5b620005148582860162000466565b9150509250929050565b7f4e487b7100000000000000000000000000000000000000000000000000000000600052602260045260246000fd5b600060028204905060018216806200056657607f821691505b602082108114156200057d576200057c6200051e565b5b50919050565b61543e80620005936000396000f3fe6080604052600436106102135760003560e01c806395d89b4111610118578063c87b56dd116100a0578063d93f4d231161006f578063d93f4d23146107fe578063e035f48414610827578063e34a9d4914610850578063e985e9c51461088d578063eb08ab28146108ca5761021a565b8063c87b56dd14610760578063c9e65b841461079d578063d204c45e146107b9578063d547741f146107d55761021a565b8063a22cb465116100e7578063a22cb4651461068d578063a2e4aff0146106b6578063affed0e0146106e1578063b88d4fde1461070c578063bbc19ab0146107355761021a565b806395d89b41146105e157806398bdf6f51461060c578063a10f469e14610637578063a217fddf146106625761021a565b806336568abe1161019b57806370a082311161016a57806370a08231146104c25780638da5cb5b146104ff578063906322c91461052a57806391d1485414610567578063922635d8146105a45761021a565b806336568abe146103f657806342842e0e1461041f5780636352211e1461044857806363fe1f77146104855761021a565b8063150b7a02116101e2578063150b7a02146102ed5780631d1b29bd1461032a57806323b872dd14610367578063248a9ca3146103905780632f2ff15d146103cd5761021a565b806301ffc9a71461021f57806306fdde031461025c578063081812fc14610287578063095ea7b3146102c45761021a565b3661021a57005b600080fd5b34801561022b57600080fd5b50610246600480360381019061024191906135b1565b6108f5565b60405161025391906135f9565b60405180910390f35b34801561026857600080fd5b50610271610907565b60405161027e91906136ad565b60405180910390f35b34801561029357600080fd5b506102ae60048036038101906102a99190613705565b610999565b6040516102bb9190613773565b60405180910390f35b3480156102d057600080fd5b506102eb60048036038101906102e691906137ba565b6109df565b005b3480156102f957600080fd5b50610314600480360381019061030f919061385f565b610af7565b60405161032191906138f6565b60405180910390f35b34801561033657600080fd5b50610351600480360381019061034c9190613911565b610b0c565b60405161035e91906135f9565b60405180910390f35b34801561037357600080fd5b5061038e6004803603810190610389919061393e565b610b3f565b005b34801561039c57600080fd5b506103b760048036038101906103b291906139c7565b610ba0565b6040516103c49190613a03565b60405180910390f35b3480156103d957600080fd5b506103f460048036038101906103ef9190613a1e565b610bc0565b005b34801561040257600080fd5b5061041d60048036038101906104189190613a1e565b610c65565b005b34801561042b57600080fd5b506104466004803603810190610441919061393e565b610ce8565b005b34801561045457600080fd5b5061046f600480360381019061046a9190613705565b610d08565b60405161047c9190613773565b60405180910390f35b34801561049157600080fd5b506104ac60048036038101906104a79190613705565b610d8f565b6040516104b991906135f9565b60405180910390f35b3480156104ce57600080fd5b506104e960048036038101906104e49190613911565b610db9565b6040516104f69190613a6d565b60405180910390f35b34801561050b57600080fd5b50610514610e71565b6040516105219190613773565b60405180910390f35b34801561053657600080fd5b50610551600480360381019061054c9190613911565b610e97565b60405161055e91906135f9565b60405180910390f35b34801561057357600080fd5b5061058e60048036038101906105899190613a1e565b610eca565b60405161059b91906135f9565b60405180910390f35b3480156105b057600080fd5b506105cb60048036038101906105c69190613705565b610f35565b6040516105d89190613b4b565b60405180910390f35b3480156105ed57600080fd5b506105f661109a565b60405161060391906136ad565b60405180910390f35b34801561061857600080fd5b5061062161112c565b60405161062e9190613a6d565b60405180910390f35b34801561064357600080fd5b5061064c611138565b6040516106599190613a03565b60405180910390f35b34801561066e57600080fd5b5061067761115c565b6040516106849190613a03565b60405180910390f35b34801561069957600080fd5b506106b460048036038101906106af9190613b99565b611163565b005b3480156106c257600080fd5b506106cb611179565b6040516106d89190613a03565b60405180910390f35b3480156106ed57600080fd5b506106f661119d565b6040516107039190613a6d565b60405180910390f35b34801561071857600080fd5b50610733600480360381019061072e9190613d09565b6111a3565b005b34801561074157600080fd5b5061074a611205565b60405161075791906136ad565b60405180910390f35b34801561076c57600080fd5b5061078760048036038101906107829190613705565b61126c565b60405161079491906136ad565b60405180910390f35b6107b760048036038101906107b2919061393e565b61127e565b005b6107d360048036038101906107ce9190613e2d565b6113fc565b005b3480156107e157600080fd5b506107fc60048036038101906107f79190613a1e565b6115c9565b005b34801561080a57600080fd5b5061082560048036038101906108209190613f03565b6115ea565b005b34801561083357600080fd5b5061084e60048036038101906108499190613f8b565b61166e565b005b34801561085c57600080fd5b5061087760048036038101906108729190613705565b6117a7565b6040516108849190613773565b60405180910390f35b34801561089957600080fd5b506108b460048036038101906108af9190613fcb565b6117e9565b6040516108c191906135f9565b60405180910390f35b3480156108d657600080fd5b506108df61187d565b6040516108ec9190613a6d565b60405180910390f35b60006109008261188e565b9050919050565b6060600080546109169061403a565b80601f01602080910402602001604051908101604052809291908181526020018280546109429061403a565b801561098f5780601f106109645761010080835404028352916020019161098f565b820191906000526020600020905b81548152906001019060200180831161097257829003601f168201915b5050505050905090565b60006109a482611908565b6004600083815260200190815260200160002060009054906101000a900473ffffffffffffffffffffffffffffffffffffffff169050919050565b60006109ea82610d08565b90508073ffffffffffffffffffffffffffffffffffffffff168373ffffffffffffffffffffffffffffffffffffffff161415610a5b576040517f08c379a0000000000000000000000000000000000000000000000000000000008152600401610a52906140de565b60405180910390fd5b8073ffffffffffffffffffffffffffffffffffffffff16610a7a611953565b73ffffffffffffffffffffffffffffffffffffffff161480610aa95750610aa881610aa3611953565b6117e9565b5b610ae8576040517f08c379a0000000000000000000000000000000000000000000000000000000008152600401610adf90614170565b60405180910390fd5b610af2838361195b565b505050565b600063150b7a0260e01b905095945050505050565b6000610b387fa870f1a91ab66a18174ae285449a007bea36a28441e5b44a847deb90f83e86eb83610eca565b9050919050565b6000801b610b4c81611a14565b610b57836001611163565b610b62848484611a28565b7ff6424459656d156a32411176601baac0d0f3e7ffa29398e7cbfbab916565f1726001604051610b9291906135f9565b60405180910390a150505050565b600060076000838152602001908152602001600020600101549050919050565b610bcc6000801b610ba0565b610bd581611a14565b7fa870f1a91ab66a18174ae285449a007bea36a28441e5b44a847deb90f83e86eb831415610c56576001600960008473ffffffffffffffffffffffffffffffffffffffff1673ffffffffffffffffffffffffffffffffffffffff16815260200190815260200160002060006101000a81548160ff0219169083151502179055505b610c608383611d22565b505050565b610c6d611953565b73ffffffffffffffffffffffffffffffffffffffff168173ffffffffffffffffffffffffffffffffffffffff1614610cda576040517f08c379a0000000000000000000000000000000000000000000000000000000008152600401610cd190614202565b60405180910390fd5b610ce48282611e03565b5050565b610d03838383604051806020016040528060008152506111a3565b505050565b600080610d1483611ee5565b9050600073ffffffffffffffffffffffffffffffffffffffff168173ffffffffffffffffffffffffffffffffffffffff161415610d86576040517f08c379a0000000000000000000000000000000000000000000000000000000008152600401610d7d9061426e565b60405180910390fd5b80915050919050565b6000600f600083815260200190815260200160002060009054906101000a900460ff169050919050565b60008073ffffffffffffffffffffffffffffffffffffffff168273ffffffffffffffffffffffffffffffffffffffff161415610e2a576040517f08c379a0000000000000000000000000000000000000000000000000000000008152600401610e2190614300565b60405180910390fd5b600360008373ffffffffffffffffffffffffffffffffffffffff1673ffffffffffffffffffffffffffffffffffffffff168152602001908152602001600020549050919050565b600d60009054906101000a900473ffffffffffffffffffffffffffffffffffffffff1681565b6000610ec37f829b824e2329e205435d941c9f13baf578548505283d29261236d8e6596d463683610eca565b9050919050565b60006007600084815260200190815260200160002060000160008373ffffffffffffffffffffffffffffffffffffffff1673ffffffffffffffffffffffffffffffffffffffff16815260200190815260200160002060009054906101000a900460ff16905092915050565b610f3d61347a565b600e600083815260200190815260200160002060405180608001604052908160008201548152602001600182018054610f759061403a565b80601f0160208091040260200160405190810160405280929190818152602001828054610fa19061403a565b8015610fee5780601f10610fc357610100808354040283529160200191610fee565b820191906000526020600020905b815481529060010190602001808311610fd157829003601f168201915b505050505081526020016002820180546110079061403a565b80601f01602080910402602001604051908101604052809291908181526020018280546110339061403a565b80156110805780601f1061105557610100808354040283529160200191611080565b820191906000526020600020905b81548152906001019060200180831161106357829003601f168201915b505050505081526020016003820154815250509050919050565b6060600180546110a99061403a565b80601f01602080910402602001604051908101604052809291908181526020018280546110d59061403a565b80156111225780601f106110f757610100808354040283529160200191611122565b820191906000526020600020905b81548152906001019060200180831161110557829003601f168201915b5050505050905090565b600c8060000154905081565b7f829b824e2329e205435d941c9f13baf578548505283d29261236d8e6596d463681565b6000801b81565b61117561116e611953565b8383611f22565b5050565b7fa870f1a91ab66a18174ae285449a007bea36a28441e5b44a847deb90f83e86eb81565b60085481565b6111b46111ae611953565b8361208f565b6111f3576040517f08c379a00000000000000000000000000000000000000000000000000000000081526004016111ea90614392565b60405180910390fd5b6111ff84848484612124565b50505050565b60606000611213600c612180565b905060008114156112365760405180602001604052806000815250915050611269565b600081111561125c5761125460018261124f91906143e1565b61126c565b915050611269565b6112658161126c565b9150505b90565b60606112778261218e565b9050919050565b8273ffffffffffffffffffffffffffffffffffffffff1661129e82610d08565b73ffffffffffffffffffffffffffffffffffffffff16146112f4576040517f08c379a00000000000000000000000000000000000000000000000000000000081526004016112eb90614487565b60405180910390fd5b60003411611337576040517f08c379a000000000000000000000000000000000000000000000000000000000815260040161132e90614519565b60405180910390fd5b611342338383610b3f565b600061134d82610d08565b73ffffffffffffffffffffffffffffffffffffffff16346040516113709061456a565b60006040518083038185875af1925050503d80600081146113ad576040519150601f19603f3d011682016040523d82523d6000602084013e6113b2565b606091505b50509050806113f6576040517f08c379a00000000000000000000000000000000000000000000000000000000081526004016113ed906145cb565b60405180910390fd5b50505050565b7fa870f1a91ab66a18174ae285449a007bea36a28441e5b44a847deb90f83e86eb61142681611a14565b600134101561146a576040517f08c379a00000000000000000000000000000000000000000000000000000000081526004016114619061465d565b60405180910390fd5b6000611476600c612180565b9050611482600c6122a1565b61148c84826122b7565b61149681846122d5565b61149e61347a565b818160000181815250508381604001819052506040518060400160405280600981526020017f417661696c61626c6500000000000000000000000000000000000000000000008152508160200181905250348160600181815250506001600f600084815260200190815260200160002060006101000a81548160ff02191690831515021790555080600e600084815260200190815260200160002060008201518160000155602082015181600101908051906020019061155f9291906134a2565b50604082015181600201908051906020019061157c9291906134a2565b50606082015181600301559050507f20ca71800840a1730c265dcac5f68ec9daffe929561a6ed11f49ada5e4f7a31a60016040516115ba91906135f9565b60405180910390a15050505050565b6115d282610ba0565b6115db81611a14565b6115e58383611e03565b505050565b600b60009054906101000a900460ff161561160457600080fd5b6001600b60006101000a81548160ff02191690831515021790555061162b84848484612349565b61164c858560400160208101906116429190613911565b866000013561127e565b6000600b60006101000a81548160ff0219169083151502179055505050505050565b600f600083815260200190815260200160002060009054906101000a900460ff166116ce576040517f08c379a00000000000000000000000000000000000000000000000000000000081526004016116c5906146c9565b60405180910390fd5b6040518060400160405280600b81526020017f496e2050726f6772657373000000000000000000000000000000000000000000815250600e6000848152602001908152602001600020600101908051906020019061172d9291906134a2565b50600f600083815260200190815260200160002060006101000a81549060ff0219169055806010600084815260200190815260200160002060006101000a81548173ffffffffffffffffffffffffffffffffffffffff021916908373ffffffffffffffffffffffffffffffffffffffff1602179055505050565b6000806010600084815260200190815260200160002060009054906101000a900473ffffffffffffffffffffffffffffffffffffffff16905080915050919050565b6000600560008473ffffffffffffffffffffffffffffffffffffffff1673ffffffffffffffffffffffffffffffffffffffff16815260200190815260200160002060008373ffffffffffffffffffffffffffffffffffffffff1673ffffffffffffffffffffffffffffffffffffffff16815260200190815260200160002060009054906101000a900460ff16905092915050565b6000611889600c612180565b905090565b60007f7965db0b000000000000000000000000000000000000000000000000000000007bffffffffffffffffffffffffffffffffffffffffffffffffffffffff1916827bffffffffffffffffffffffffffffffffffffffffffffffffffffffff19161480611901575061190082612595565b5b9050919050565b61191181612677565b611950576040517f08c379a00000000000000000000000000000000000000000000000000000000081526004016119479061426e565b60405180910390fd5b50565b600033905090565b816004600083815260200190815260200160002060006101000a81548173ffffffffffffffffffffffffffffffffffffffff021916908373ffffffffffffffffffffffffffffffffffffffff160217905550808273ffffffffffffffffffffffffffffffffffffffff166119ce83610d08565b73ffffffffffffffffffffffffffffffffffffffff167f8c5be1e5ebec7d5bd14f71427d1e84f3dd0314c0f7b2291e5b200ac8c7c3b92560405160405180910390a45050565b611a2581611a20611953565b6126b8565b50565b8273ffffffffffffffffffffffffffffffffffffffff16611a4882610d08565b73ffffffffffffffffffffffffffffffffffffffff1614611a9e576040517f08c379a0000000000000000000000000000000000000000000000000000000008152600401611a959061475b565b60405180910390fd5b600073ffffffffffffffffffffffffffffffffffffffff168273ffffffffffffffffffffffffffffffffffffffff161415611b0e576040517f08c379a0000000000000000000000000000000000000000000000000000000008152600401611b05906147ed565b60405180910390fd5b611b1b838383600161273d565b8273ffffffffffffffffffffffffffffffffffffffff16611b3b82610d08565b73ffffffffffffffffffffffffffffffffffffffff1614611b91576040517f08c379a0000000000000000000000000000000000000000000000000000000008152600401611b889061475b565b60405180910390fd5b6004600082815260200190815260200160002060006101000a81549073ffffffffffffffffffffffffffffffffffffffff02191690556001600360008573ffffffffffffffffffffffffffffffffffffffff1673ffffffffffffffffffffffffffffffffffffffff168152602001908152602001600020600082825403925050819055506001600360008473ffffffffffffffffffffffffffffffffffffffff1673ffffffffffffffffffffffffffffffffffffffff16815260200190815260200160002060008282540192505081905550816002600083815260200190815260200160002060006101000a81548173ffffffffffffffffffffffffffffffffffffffff021916908373ffffffffffffffffffffffffffffffffffffffff160217905550808273ffffffffffffffffffffffffffffffffffffffff168473ffffffffffffffffffffffffffffffffffffffff167fddf252ad1be2c89b69c2b068fc378daa952ba7f163c4a11628f55a4df523b3ef60405160405180910390a4611d1d8383836001612743565b505050565b611d2c8282610eca565b611dff5760016007600084815260200190815260200160002060000160008373ffffffffffffffffffffffffffffffffffffffff1673ffffffffffffffffffffffffffffffffffffffff16815260200190815260200160002060006101000a81548160ff021916908315150217905550611da4611953565b73ffffffffffffffffffffffffffffffffffffffff168173ffffffffffffffffffffffffffffffffffffffff16837f2f8788117e7eff1d82e926ec794901d17c78024a50270940304540a733656f0d60405160405180910390a45b5050565b611e0d8282610eca565b15611ee15760006007600084815260200190815260200160002060000160008373ffffffffffffffffffffffffffffffffffffffff1673ffffffffffffffffffffffffffffffffffffffff16815260200190815260200160002060006101000a81548160ff021916908315150217905550611e86611953565b73ffffffffffffffffffffffffffffffffffffffff168173ffffffffffffffffffffffffffffffffffffffff16837ff6391f5c32d9c69d2a47ea670b442974b53935d1edc7fd64eb21e047a839171b60405160405180910390a45b5050565b60006002600083815260200190815260200160002060009054906101000a900473ffffffffffffffffffffffffffffffffffffffff169050919050565b8173ffffffffffffffffffffffffffffffffffffffff168373ffffffffffffffffffffffffffffffffffffffff161415611f91576040517f08c379a0000000000000000000000000000000000000000000000000000000008152600401611f8890614859565b60405180910390fd5b80600560008573ffffffffffffffffffffffffffffffffffffffff1673ffffffffffffffffffffffffffffffffffffffff16815260200190815260200160002060008473ffffffffffffffffffffffffffffffffffffffff1673ffffffffffffffffffffffffffffffffffffffff16815260200190815260200160002060006101000a81548160ff0219169083151502179055508173ffffffffffffffffffffffffffffffffffffffff168373ffffffffffffffffffffffffffffffffffffffff167f17307eab39ab6107e8899845ad3d59bd9653f200f220920489ca2b5937696c318360405161208291906135f9565b60405180910390a3505050565b60008061209b83610d08565b90508073ffffffffffffffffffffffffffffffffffffffff168473ffffffffffffffffffffffffffffffffffffffff1614806120dd57506120dc81856117e9565b5b8061211b57508373ffffffffffffffffffffffffffffffffffffffff1661210384610999565b73ffffffffffffffffffffffffffffffffffffffff16145b91505092915050565b61212f848484611a28565b61213b84848484612749565b61217a576040517f08c379a0000000000000000000000000000000000000000000000000000000008152600401612171906148eb565b60405180910390fd5b50505050565b600081600001549050919050565b606061219982611908565b60006006600084815260200190815260200160002080546121b99061403a565b80601f01602080910402602001604051908101604052809291908181526020018280546121e59061403a565b80156122325780601f1061220757610100808354040283529160200191612232565b820191906000526020600020905b81548152906001019060200180831161221557829003601f168201915b5050505050905060006122436128e0565b905060008151141561225957819250505061229c565b60008251111561228e578082604051602001612276929190614947565b6040516020818303038152906040529250505061229c565b612297846128f7565b925050505b919050565b6001816000016000828254019250508190555050565b6122d182826040518060200160405280600081525061295f565b5050565b6122de82612677565b61231d576040517f08c379a0000000000000000000000000000000000000000000000000000000008152600401612314906149dd565b60405180910390fd5b806006600084815260200190815260200160002090805190602001906123449291906134a2565b505050565b600854831161238d576040517f08c379a000000000000000000000000000000000000000000000000000000000815260040161238490614a49565b60405180910390fd5b6000828290509050600a548110156123da576040517f08c379a00000000000000000000000000000000000000000000000000000000081526004016123d190614ab5565b60405180910390fd5b60006123e686866129ba565b9050600080600090505b8381101561258457600086868381811061240d5761240c614ad5565b5b905060200281019061241f9190614b13565b8080601f016020809104026020016040519081016040528093929190818152602001838380828437600081840152601f19601f82011690508083019250505050505050905060006124708583612a71565b90508373ffffffffffffffffffffffffffffffffffffffff168173ffffffffffffffffffffffffffffffffffffffff16116124e0576040517f08c379a00000000000000000000000000000000000000000000000000000000081526004016124d790614bc2565b60405180910390fd5b600960008273ffffffffffffffffffffffffffffffffffffffff1673ffffffffffffffffffffffffffffffffffffffff16815260200190815260200160002060009054906101000a900460ff1661256c576040517f08c379a000000000000000000000000000000000000000000000000000000000815260040161256390614c2e565b60405180910390fd5b8093505050808061257c90614c4e565b9150506123f0565b508560088190555050505050505050565b60007f80ac58cd000000000000000000000000000000000000000000000000000000007bffffffffffffffffffffffffffffffffffffffffffffffffffffffff1916827bffffffffffffffffffffffffffffffffffffffffffffffffffffffff1916148061266057507f5b5e139f000000000000000000000000000000000000000000000000000000007bffffffffffffffffffffffffffffffffffffffffffffffffffffffff1916827bffffffffffffffffffffffffffffffffffffffffffffffffffffffff1916145b80612670575061266f82612a98565b5b9050919050565b60008073ffffffffffffffffffffffffffffffffffffffff1661269983611ee5565b73ffffffffffffffffffffffffffffffffffffffff1614159050919050565b6126c28282610eca565b612739576126cf81612b02565b6126dd8360001c6020612b2f565b6040516020016126ee929190614d2f565b6040516020818303038152906040526040517f08c379a000000000000000000000000000000000000000000000000000000000815260040161273091906136ad565b60405180910390fd5b5050565b50505050565b50505050565b600061276a8473ffffffffffffffffffffffffffffffffffffffff16612d6b565b156128d3578373ffffffffffffffffffffffffffffffffffffffff1663150b7a02612793611953565b8786866040518563ffffffff1660e01b81526004016127b59493929190614dbe565b602060405180830381600087803b1580156127cf57600080fd5b505af192505050801561280057506040513d601f19601f820116820180604052508101906127fd9190614e1f565b60015b612883573d8060008114612830576040519150601f19603f3d011682016040523d82523d6000602084013e612835565b606091505b5060008151141561287b576040517f08c379a0000000000000000000000000000000000000000000000000000000008152600401612872906148eb565b60405180910390fd5b805181602001fd5b63150b7a0260e01b7bffffffffffffffffffffffffffffffffffffffffffffffffffffffff1916817bffffffffffffffffffffffffffffffffffffffffffffffffffffffff1916149150506128d8565b600190505b949350505050565b606060405180602001604052806000815250905090565b606061290282611908565b600061290c6128e0565b9050600081511161292c5760405180602001604052806000815250612957565b8061293684612d8e565b604051602001612947929190614947565b6040516020818303038152906040525b915050919050565b6129698383612e66565b6129766000848484612749565b6129b5576040517f08c379a00000000000000000000000000000000000000000000000000000000081526004016129ac906148eb565b60405180910390fd5b505050565b600080836040516020016129ce9190614ee3565b604051602081830303815290604052905080836040516020016129f2929190614f50565b6040516020818303038152906040528051906020012091506040518060400160405280601c81526020017f19457468657265756d205369676e6564204d6573736167653a0a33320000000081525082604051602001612a52929190614f99565b6040516020818303038152906040528051906020012091505092915050565b6000806000612a808585613084565b91509150612a8d816130d6565b819250505092915050565b60007f01ffc9a7000000000000000000000000000000000000000000000000000000007bffffffffffffffffffffffffffffffffffffffffffffffffffffffff1916827bffffffffffffffffffffffffffffffffffffffffffffffffffffffff1916149050919050565b6060612b288273ffffffffffffffffffffffffffffffffffffffff16601460ff16612b2f565b9050919050565b606060006002836002612b429190614fc1565b612b4c919061501b565b67ffffffffffffffff811115612b6557612b64613bde565b5b6040519080825280601f01601f191660200182016040528015612b975781602001600182028036833780820191505090505b5090507f300000000000000000000000000000000000000000000000000000000000000081600081518110612bcf57612bce614ad5565b5b60200101907effffffffffffffffffffffffffffffffffffffffffffffffffffffffffffff1916908160001a9053507f780000000000000000000000000000000000000000000000000000000000000081600181518110612c3357612c32614ad5565b5b60200101907effffffffffffffffffffffffffffffffffffffffffffffffffffffffffffff1916908160001a90535060006001846002612c739190614fc1565b612c7d919061501b565b90505b6001811115612d1d577f3031323334353637383961626364656600000000000000000000000000000000600f861660108110612cbf57612cbe614ad5565b5b1a60f81b828281518110612cd657612cd5614ad5565b5b60200101907effffffffffffffffffffffffffffffffffffffffffffffffffffffffffffff1916908160001a905350600485901c945080612d1690615071565b9050612c80565b5060008414612d61576040517f08c379a0000000000000000000000000000000000000000000000000000000008152600401612d58906150e7565b60405180910390fd5b8091505092915050565b6000808273ffffffffffffffffffffffffffffffffffffffff163b119050919050565b606060006001612d9d84613244565b01905060008167ffffffffffffffff811115612dbc57612dbb613bde565b5b6040519080825280601f01601f191660200182016040528015612dee5781602001600182028036833780820191505090505b509050600082602001820190505b600115612e5b578080600190039150507f3031323334353637383961626364656600000000000000000000000000000000600a86061a8153600a8581612e4557612e44615107565b5b0494506000851415612e5657612e5b565b612dfc565b819350505050919050565b600073ffffffffffffffffffffffffffffffffffffffff168273ffffffffffffffffffffffffffffffffffffffff161415612ed6576040517f08c379a0000000000000000000000000000000000000000000000000000000008152600401612ecd90615182565b60405180910390fd5b612edf81612677565b15612f1f576040517f08c379a0000000000000000000000000000000000000000000000000000000008152600401612f16906151ee565b60405180910390fd5b612f2d60008383600161273d565b612f3681612677565b15612f76576040517f08c379a0000000000000000000000000000000000000000000000000000000008152600401612f6d906151ee565b60405180910390fd5b6001600360008473ffffffffffffffffffffffffffffffffffffffff1673ffffffffffffffffffffffffffffffffffffffff16815260200190815260200160002060008282540192505081905550816002600083815260200190815260200160002060006101000a81548173ffffffffffffffffffffffffffffffffffffffff021916908373ffffffffffffffffffffffffffffffffffffffff160217905550808273ffffffffffffffffffffffffffffffffffffffff16600073ffffffffffffffffffffffffffffffffffffffff167fddf252ad1be2c89b69c2b068fc378daa952ba7f163c4a11628f55a4df523b3ef60405160405180910390a4613080600083836001612743565b5050565b6000806041835114156130c65760008060006020860151925060408601519150606086015160001a90506130ba87828585613397565b945094505050506130cf565b60006002915091505b9250929050565b600060048111156130ea576130e961520e565b5b8160048111156130fd576130fc61520e565b5b141561310857613241565b6001600481111561311c5761311b61520e565b5b81600481111561312f5761312e61520e565b5b1415613170576040517f08c379a000000000000000000000000000000000000000000000000000000000815260040161316790615289565b60405180910390fd5b600260048111156131845761318361520e565b5b8160048111156131975761319661520e565b5b14156131d8576040517f08c379a00000000000000000000000000000000000000000000000000000000081526004016131cf906152f5565b60405180910390fd5b600360048111156131ec576131eb61520e565b5b8160048111156131ff576131fe61520e565b5b1415613240576040517f08c379a000000000000000000000000000000000000000000000000000000000815260040161323790615387565b60405180910390fd5b5b50565b600080600090507a184f03e93ff9f4daa797ed6e38ed64bf6a1f01000000000000000083106132a2577a184f03e93ff9f4daa797ed6e38ed64bf6a1f010000000000000000838161329857613297615107565b5b0492506040810190505b6d04ee2d6d415b85acef810000000083106132df576d04ee2d6d415b85acef810000000083816132d5576132d4615107565b5b0492506020810190505b662386f26fc10000831061330e57662386f26fc10000838161330457613303615107565b5b0492506010810190505b6305f5e1008310613337576305f5e100838161332d5761332c615107565b5b0492506008810190505b612710831061335c57612710838161335257613351615107565b5b0492506004810190505b6064831061337f576064838161337557613374615107565b5b0492506002810190505b600a831061338e576001810190505b80915050919050565b6000807f7fffffffffffffffffffffffffffffff5d576e7357a4501ddfe92f46681b20a08360001c11156133d2576000600391509150613471565b6000600187878787604051600081526020016040526040516133f794939291906153c3565b6020604051602081039080840390855afa158015613419573d6000803e3d6000fd5b505050602060405103519050600073ffffffffffffffffffffffffffffffffffffffff168173ffffffffffffffffffffffffffffffffffffffff16141561346857600060019250925050613471565b80600092509250505b94509492505050565b6040518060800160405280600081526020016060815260200160608152602001600081525090565b8280546134ae9061403a565b90600052602060002090601f0160209004810192826134d05760008555613517565b82601f106134e957805160ff1916838001178555613517565b82800160010185558215613517579182015b828111156135165782518255916020019190600101906134fb565b5b5090506135249190613528565b5090565b5b80821115613541576000816000905550600101613529565b5090565b6000604051905090565b600080fd5b600080fd5b60007fffffffff0000000000000000000000000000000000000000000000000000000082169050919050565b61358e81613559565b811461359957600080fd5b50565b6000813590506135ab81613585565b92915050565b6000602082840312156135c7576135c661354f565b5b60006135d58482850161359c565b91505092915050565b60008115159050919050565b6135f3816135de565b82525050565b600060208201905061360e60008301846135ea565b92915050565b600081519050919050565b600082825260208201905092915050565b60005b8381101561364e578082015181840152602081019050613633565b8381111561365d576000848401525b50505050565b6000601f19601f8301169050919050565b600061367f82613614565b613689818561361f565b9350613699818560208601613630565b6136a281613663565b840191505092915050565b600060208201905081810360008301526136c78184613674565b905092915050565b6000819050919050565b6136e2816136cf565b81146136ed57600080fd5b50565b6000813590506136ff816136d9565b92915050565b60006020828403121561371b5761371a61354f565b5b6000613729848285016136f0565b91505092915050565b600073ffffffffffffffffffffffffffffffffffffffff82169050919050565b600061375d82613732565b9050919050565b61376d81613752565b82525050565b60006020820190506137886000830184613764565b92915050565b61379781613752565b81146137a257600080fd5b50565b6000813590506137b48161378e565b92915050565b600080604083850312156137d1576137d061354f565b5b60006137df858286016137a5565b92505060206137f0858286016136f0565b9150509250929050565b600080fd5b600080fd5b600080fd5b60008083601f84011261381f5761381e6137fa565b5b8235905067ffffffffffffffff81111561383c5761383b6137ff565b5b60208301915083600182028301111561385857613857613804565b5b9250929050565b60008060008060006080868803121561387b5761387a61354f565b5b6000613889888289016137a5565b955050602061389a888289016137a5565b94505060406138ab888289016136f0565b935050606086013567ffffffffffffffff8111156138cc576138cb613554565b5b6138d888828901613809565b92509250509295509295909350565b6138f081613559565b82525050565b600060208201905061390b60008301846138e7565b92915050565b6000602082840312156139275761392661354f565b5b6000613935848285016137a5565b91505092915050565b6000806000606084860312156139575761395661354f565b5b6000613965868287016137a5565b9350506020613976868287016137a5565b9250506040613987868287016136f0565b9150509250925092565b6000819050919050565b6139a481613991565b81146139af57600080fd5b50565b6000813590506139c18161399b565b92915050565b6000602082840312156139dd576139dc61354f565b5b60006139eb848285016139b2565b91505092915050565b6139fd81613991565b82525050565b6000602082019050613a1860008301846139f4565b92915050565b60008060408385031215613a3557613a3461354f565b5b6000613a43858286016139b2565b9250506020613a54858286016137a5565b9150509250929050565b613a67816136cf565b82525050565b6000602082019050613a826000830184613a5e565b92915050565b613a91816136cf565b82525050565b600082825260208201905092915050565b6000613ab382613614565b613abd8185613a97565b9350613acd818560208601613630565b613ad681613663565b840191505092915050565b6000608083016000830151613af96000860182613a88565b5060208301518482036020860152613b118282613aa8565b91505060408301518482036040860152613b2b8282613aa8565b9150506060830151613b406060860182613a88565b508091505092915050565b60006020820190508181036000830152613b658184613ae1565b905092915050565b613b76816135de565b8114613b8157600080fd5b50565b600081359050613b9381613b6d565b92915050565b60008060408385031215613bb057613baf61354f565b5b6000613bbe858286016137a5565b9250506020613bcf85828601613b84565b9150509250929050565b600080fd5b7f4e487b7100000000000000000000000000000000000000000000000000000000600052604160045260246000fd5b613c1682613663565b810181811067ffffffffffffffff82111715613c3557613c34613bde565b5b80604052505050565b6000613c48613545565b9050613c548282613c0d565b919050565b600067ffffffffffffffff821115613c7457613c73613bde565b5b613c7d82613663565b9050602081019050919050565b82818337600083830152505050565b6000613cac613ca784613c59565b613c3e565b905082815260208101848484011115613cc857613cc7613bd9565b5b613cd3848285613c8a565b509392505050565b600082601f830112613cf057613cef6137fa565b5b8135613d00848260208601613c99565b91505092915050565b60008060008060808587031215613d2357613d2261354f565b5b6000613d31878288016137a5565b9450506020613d42878288016137a5565b9350506040613d53878288016136f0565b925050606085013567ffffffffffffffff811115613d7457613d73613554565b5b613d8087828801613cdb565b91505092959194509250565b600067ffffffffffffffff821115613da757613da6613bde565b5b613db082613663565b9050602081019050919050565b6000613dd0613dcb84613d8c565b613c3e565b905082815260208101848484011115613dec57613deb613bd9565b5b613df7848285613c8a565b509392505050565b600082601f830112613e1457613e136137fa565b5b8135613e24848260208601613dbd565b91505092915050565b60008060408385031215613e4457613e4361354f565b5b6000613e52858286016137a5565b925050602083013567ffffffffffffffff811115613e7357613e72613554565b5b613e7f85828601613dff565b9150509250929050565b600080fd5b600060608284031215613ea457613ea3613e89565b5b81905092915050565b60008083601f840112613ec357613ec26137fa565b5b8235905067ffffffffffffffff811115613ee057613edf6137ff565b5b602083019150836020820283011115613efc57613efb613804565b5b9250929050565b600080600080600060c08688031215613f1f57613f1e61354f565b5b6000613f2d888289016137a5565b9550506020613f3e88828901613e8e565b9450506080613f4f888289016136f0565b93505060a086013567ffffffffffffffff811115613f7057613f6f613554565b5b613f7c88828901613ead565b92509250509295509295909350565b60008060408385031215613fa257613fa161354f565b5b6000613fb0858286016136f0565b9250506020613fc1858286016137a5565b9150509250929050565b60008060408385031215613fe257613fe161354f565b5b6000613ff0858286016137a5565b9250506020614001858286016137a5565b9150509250929050565b7f4e487b7100000000000000000000000000000000000000000000000000000000600052602260045260246000fd5b6000600282049050600182168061405257607f821691505b602082108114156140665761406561400b565b5b50919050565b7f4552433732313a20617070726f76616c20746f2063757272656e74206f776e6560008201527f7200000000000000000000000000000000000000000000000000000000000000602082015250565b60006140c860218361361f565b91506140d38261406c565b604082019050919050565b600060208201905081810360008301526140f7816140bb565b9050919050565b7f4552433732313a20617070726f76652063616c6c6572206973206e6f7420746f60008201527f6b656e206f776e6572206f7220617070726f76656420666f7220616c6c000000602082015250565b600061415a603d8361361f565b9150614165826140fe565b604082019050919050565b600060208201905081810360008301526141898161414d565b9050919050565b7f416363657373436f6e74726f6c3a2063616e206f6e6c792072656e6f756e636560008201527f20726f6c657320666f722073656c660000000000000000000000000000000000602082015250565b60006141ec602f8361361f565b91506141f782614190565b604082019050919050565b6000602082019050818103600083015261421b816141df565b9050919050565b7f4552433732313a20696e76616c696420746f6b656e2049440000000000000000600082015250565b600061425860188361361f565b915061426382614222565b602082019050919050565b600060208201905081810360008301526142878161424b565b9050919050565b7f4552433732313a2061646472657373207a65726f206973206e6f74206120766160008201527f6c6964206f776e65720000000000000000000000000000000000000000000000602082015250565b60006142ea60298361361f565b91506142f58261428e565b604082019050919050565b60006020820190508181036000830152614319816142dd565b9050919050565b7f4552433732313a2063616c6c6572206973206e6f7420746f6b656e206f776e6560008201527f72206f7220617070726f76656400000000000000000000000000000000000000602082015250565b600061437c602d8361361f565b915061438782614320565b604082019050919050565b600060208201905081810360008301526143ab8161436f565b9050919050565b7f4e487b7100000000000000000000000000000000000000000000000000000000600052601160045260246000fd5b60006143ec826136cf565b91506143f7836136cf565b92508282101561440a576144096143b2565b5b828203905092915050565b7f41726520796f75207265616c6c79206f776e6572206f662074686973204e465460008201527f3f00000000000000000000000000000000000000000000000000000000000000602082015250565b600061447160218361361f565b915061447c82614415565b604082019050919050565b600060208201905081810360008301526144a081614464565b9050919050565b7f45544820616d6f756e74206d7573742062652067726561746572207468616e2060008201527f3000000000000000000000000000000000000000000000000000000000000000602082015250565b600061450360218361361f565b915061450e826144a7565b604082019050919050565b60006020820190508181036000830152614532816144f6565b9050919050565b600081905092915050565b50565b6000614554600083614539565b915061455f82614544565b600082019050919050565b600061457582614547565b9150819050919050565b7f4661696c656420746f2073656e64204554480000000000000000000000000000600082015250565b60006145b560128361361f565b91506145c08261457f565b602082019050919050565b600060208201905081810360008301526145e4816145a8565b9050919050565b7f4e6f7420656e6f756768204554482073656e743b20636865636b20707269636560008201527f2100000000000000000000000000000000000000000000000000000000000000602082015250565b600061464760218361361f565b9150614652826145eb565b604082019050919050565b600060208201905081810360008301526146768161463a565b9050919050565b7f4163746976697479206e6f7420617661696c61626c6521000000000000000000600082015250565b60006146b360178361361f565b91506146be8261467d565b602082019050919050565b600060208201905081810360008301526146e2816146a6565b9050919050565b7f4552433732313a207472616e736665722066726f6d20696e636f72726563742060008201527f6f776e6572000000000000000000000000000000000000000000000000000000602082015250565b600061474560258361361f565b9150614750826146e9565b604082019050919050565b6000602082019050818103600083015261477481614738565b9050919050565b7f4552433732313a207472616e7366657220746f20746865207a65726f2061646460008201527f7265737300000000000000000000000000000000000000000000000000000000602082015250565b60006147d760248361361f565b91506147e28261477b565b604082019050919050565b60006020820190508181036000830152614806816147ca565b9050919050565b7f4552433732313a20617070726f766520746f2063616c6c657200000000000000600082015250565b600061484360198361361f565b915061484e8261480d565b602082019050919050565b6000602082019050818103600083015261487281614836565b9050919050565b7f4552433732313a207472616e7366657220746f206e6f6e20455243373231526560008201527f63656976657220696d706c656d656e7465720000000000000000000000000000602082015250565b60006148d560328361361f565b91506148e082614879565b604082019050919050565b60006020820190508181036000830152614904816148c8565b9050919050565b600081905092915050565b600061492182613614565b61492b818561490b565b935061493b818560208601613630565b80840191505092915050565b60006149538285614916565b915061495f8284614916565b91508190509392505050565b7f45524337323155524953746f726167653a2055524920736574206f66206e6f6e60008201527f6578697374656e7420746f6b656e000000000000000000000000000000000000602082015250565b60006149c7602e8361361f565b91506149d28261496b565b604082019050919050565b600060208201905081810360008301526149f6816149ba565b9050919050565b7f6e6f6e636520616c726561647920757365640000000000000000000000000000600082015250565b6000614a3360128361361f565b9150614a3e826149fd565b602082019050919050565b60006020820190508181036000830152614a6281614a26565b9050919050565b7f6e6f7420656e6f756768207369676e6572730000000000000000000000000000600082015250565b6000614a9f60128361361f565b9150614aaa82614a69565b602082019050919050565b60006020820190508181036000830152614ace81614a92565b9050919050565b7f4e487b7100000000000000000000000000000000000000000000000000000000600052603260045260246000fd5b600080fd5b600080fd5b600080fd5b60008083356001602003843603038112614b3057614b2f614b04565b5b80840192508235915067ffffffffffffffff821115614b5257614b51614b09565b5b602083019250600182023603831315614b6e57614b6d614b0e565b5b509250929050565b7f706f737369626c65206475706c69636174650000000000000000000000000000600082015250565b6000614bac60128361361f565b9150614bb782614b76565b602082019050919050565b60006020820190508181036000830152614bdb81614b9f565b9050919050565b7f6e6f742070617274206f6620636f6e736f727469756d00000000000000000000600082015250565b6000614c1860168361361f565b9150614c2382614be2565b602082019050919050565b60006020820190508181036000830152614c4781614c0b565b9050919050565b6000614c59826136cf565b91507fffffffffffffffffffffffffffffffffffffffffffffffffffffffffffffffff821415614c8c57614c8b6143b2565b5b600182019050919050565b7f416363657373436f6e74726f6c3a206163636f756e7420000000000000000000600082015250565b6000614ccd60178361490b565b9150614cd882614c97565b601782019050919050565b7f206973206d697373696e6720726f6c6520000000000000000000000000000000600082015250565b6000614d1960118361490b565b9150614d2482614ce3565b601182019050919050565b6000614d3a82614cc0565b9150614d468285614916565b9150614d5182614d0c565b9150614d5d8284614916565b91508190509392505050565b600081519050919050565b600082825260208201905092915050565b6000614d9082614d69565b614d9a8185614d74565b9350614daa818560208601613630565b614db381613663565b840191505092915050565b6000608082019050614dd36000830187613764565b614de06020830186613764565b614ded6040830185613a5e565b8181036060830152614dff8184614d85565b905095945050505050565b600081519050614e1981613585565b92915050565b600060208284031215614e3557614e3461354f565b5b6000614e4384828501614e0a565b91505092915050565b6000614e5b60208401846136f0565b905092915050565b6000614e7260208401846137a5565b905092915050565b614e8381613752565b82525050565b60608201614e9a6000830183614e4c565b614ea76000850182613a88565b50614eb56020830183614e4c565b614ec26020850182613a88565b50614ed06040830183614e63565b614edd6040850182614e7a565b50505050565b6000606082019050614ef86000830184614e89565b92915050565b6000614f0982614d69565b614f138185614539565b9350614f23818560208601613630565b80840191505092915050565b6000819050919050565b614f4a614f45826136cf565b614f2f565b82525050565b6000614f5c8285614efe565b9150614f688284614f39565b6020820191508190509392505050565b6000819050919050565b614f93614f8e82613991565b614f78565b82525050565b6000614fa58285614916565b9150614fb18284614f82565b6020820191508190509392505050565b6000614fcc826136cf565b9150614fd7836136cf565b9250817fffffffffffffffffffffffffffffffffffffffffffffffffffffffffffffffff04831182151516156150105761500f6143b2565b5b828202905092915050565b6000615026826136cf565b9150615031836136cf565b9250827fffffffffffffffffffffffffffffffffffffffffffffffffffffffffffffffff03821115615066576150656143b2565b5b828201905092915050565b600061507c826136cf565b915060008214156150905761508f6143b2565b5b600182039050919050565b7f537472696e67733a20686578206c656e67746820696e73756666696369656e74600082015250565b60006150d160208361361f565b91506150dc8261509b565b602082019050919050565b60006020820190508181036000830152615100816150c4565b9050919050565b7f4e487b7100000000000000000000000000000000000000000000000000000000600052601260045260246000fd5b7f4552433732313a206d696e7420746f20746865207a65726f2061646472657373600082015250565b600061516c60208361361f565b915061517782615136565b602082019050919050565b6000602082019050818103600083015261519b8161515f565b9050919050565b7f4552433732313a20746f6b656e20616c7265616479206d696e74656400000000600082015250565b60006151d8601c8361361f565b91506151e3826151a2565b602082019050919050565b60006020820190508181036000830152615207816151cb565b9050919050565b7f4e487b7100000000000000000000000000000000000000000000000000000000600052602160045260246000fd5b7f45434453413a20696e76616c6964207369676e61747572650000000000000000600082015250565b600061527360188361361f565b915061527e8261523d565b602082019050919050565b600060208201905081810360008301526152a281615266565b9050919050565b7f45434453413a20696e76616c6964207369676e6174757265206c656e67746800600082015250565b60006152df601f8361361f565b91506152ea826152a9565b602082019050919050565b6000602082019050818103600083015261530e816152d2565b9050919050565b7f45434453413a20696e76616c6964207369676e6174757265202773272076616c60008201527f7565000000000000000000000000000000000000000000000000000000000000602082015250565b600061537160228361361f565b915061537c82615315565b604082019050919050565b600060208201905081810360008301526153a081615364565b9050919050565b600060ff82169050919050565b6153bd816153a7565b82525050565b60006080820190506153d860008301876139f4565b6153e560208301866153b4565b6153f260408301856139f4565b6153ff60608301846139f4565b9594505050505056fea26469706673582212208eef344ed67eb9087e47c91a61239d61fcb54a8ad670d22df72b82dd300d430d64736f6c63430008090033",
  "linkReferences": {},
  "deployedLinkReferences": {}
}